:100000000C942A000C9418080C9447000C94470098
:100010000C9447000C94A6070C9447000C944700DE
:100020000C9447000C9447000C9447000C94660F06
:100030000C9447000C9447000C9447000C94470024
:100040000C9447000C9447000C9447000C94470014
:100050000C94470011241FBECFE5D8E0DEBFCDBF12
:1000600011E0A0E6B0E0EAE6F6E202C005900D92EB
:10007000A839B107D9F711E0A8E9B1E001C01D9294
:10008000A33FB107E1F70E9415070C9433130C94BA
:100090000000EF92FF920F931F937B018C0120E0F1
:1000A00030E040E05FE40E94C50388238CF0C80183
:1000B000B70120E030E040E05FE40E94C1010E940F
:1000C00053049B01AC01205030404040504806C0D2
:1000D000C801B7010E9453049B01AC01B901CA01D8
:1000E0001F910F91FF90EF900895A0E0B0E0EBE733
:1000F000F0E00C94FC12DC012B01FA019C9192308F
:1001000008F439C1EB018881823008F433C194309E
:1001100069F4843009F02FC111969C91119789815F
:10012000981709F428C1AEE8B0E025C1843009F47D
:1001300021C18230A9F4923009F01DC19A01AD01AC
:1001400088E0EA010990AE01E90109929E0181501F
:10015000C1F7E201898111969C918923818308C1AD
:10016000923009F407C112962D903C901397EB0141
:100170008A819B811496AD90BD90CD90DC901797AD
:10018000EC80FD800E811F819101281B390BB90184
:1001900037FF04C066277727621B730B6032710537
:1001A0000CF061C0121613066CF537014801062EDB
:1001B00004C096948794779467940A94D2F721E0C8
:1001C00030E040E050E004C0220F331F441F551FB1
:1001D0006A95D2F721503040404050402E213F21B7
:1001E00040235123211531054105510521F021E01E
:1001F00030E040E050E079018A01E628F72808293C
:1002000019293CC0232BD1F1260E371E350146019A
:10021000062E04C096948794779467940A94D2F734
:1002200021E030E040E050E004C0220F331F441FC3
:10023000551F6A95D2F721503040404050402A2146
:100240003B214C215D21211531054105510521F04E
:1002500021E030E040E050E059016A01A628B728CB
:10026000C828D9280BC0821593052CF01C01AA249C
:10027000BB24650103C0EE24FF24870111969C91E5
:10028000D20111968C91981709F445C0992339F041
:10029000A80197012A193B094C095D0906C0A6016E
:1002A00095012E193F09400B510B57FD08C01182D3
:1002B0003382228224833583468357831DC081E0A5
:1002C00081833382228288279927DC01821B930B4A
:1002D000A40BB50B84839583A683B7830DC0220F2F
:1002E000331F441F551F24833583468357838281E0
:1002F000938101979383828324813581468157813D
:10030000DA01C9010197A109B1098F5F9F4FAF4F72
:10031000BF4328F30BC0918333822282EA0CFB1C7B
:100320000C1D1D1DE482F5820683178383E0808304
:10033000248135814681578157FF1AC0C901AA27F8
:1003400097FDA095BA2F81709070A070B0705695EF
:10035000479537952795822B932BA42BB52B848318
:100360009583A683B7838281938101969383828349
:10037000DF0101C0D201CD01CDB7DEB7E2E10C94BF
:100380001813A0E2B0E0E7ECF1E00C9408136983E5
:100390007A838B839C832D833E834F835887E9E048
:1003A000EE2EF12CEC0EFD1ECE010196B7010E943F
:1003B00044068E010F5E1F4FCE010596B8010E94C4
:1003C00044068A8991E089278A8BC701B801AE016A
:1003D000475E5F4F0E9475000E946F05A096E6E0A1
:1003E0000C942413A0E2B0E0E8EFF1E00C940813C1
:1003F00069837A838B839C832D833E834F835887C5
:10040000F9E0EF2EF12CEC0EFD1ECE010196B701A6
:100410000E9444068E010F5E1F4FCE010596B80163
:100420000E944406C701B801AE01475E5F4F0E94BB
:1004300075000E946F05A096E6E00C942413A0E2DC
:10044000B0E0E5E2F2E00C94FC1269837A838B83DE
:100450009C832D833E834F835887CE010196BE0136
:10046000675F7F4F0E944406CE010596BE016F5E16
:100470007F4F0E9444069985923088F089898230A6
:10048000C8F0943019F4823051F404C0843029F457
:10049000923081F48EE890E0C6C0923049F420E0BA
:1004A0009A858A89981321E02A87CE010996BBC0D4
:1004B000823049F420E09A858A89981321E02A8BBA
:1004C000CE014196B0C02D843E844F8458886D88FB
:1004D0007E888F88988CEE24FF248701AA24BB2471
:1004E000650140E050E060E070E0E0E0F0E0C10174
:1004F00081709070892BE9F0E60CF71C081D191D1E
:100500009A01AB012A0D3B1D4C1D5D1D80E090E062
:10051000A0E0B0E0E614F7040805190520F481E036
:1005200090E0A0E0B0E0BA01A901480F591F6A1F8E
:100530007B1FAA0CBB1CCC1CDD1C97FE08C081E0F5
:1005400090E0A0E0B0E0A82AB92ACA2ADB2A3196B6
:10055000E032F10549F0660C771C881C991C569412
:10056000479437942794C3CFFA85EA892B893C892D
:100570008B859C85280F391F2E5F3F4F17C0CA01FE
:1005800081709070892B61F016950795F794E79428
:1005900080E090E0A0E0B0E8E82AF92A0A2B1B2BC3
:1005A00076956795579547952F5F3F4F77FDE7CF36
:1005B0000CC0440F551F661F771F17FD4160EE0CDE
:1005C000FF1C001F111F21503040403090E05907A0
:1005D00090E0690790E4790760F32B8F3C8FDB0193
:1005E000CA018F779070A070B07080349105A1051A
:1005F000B10561F447FD0AC0E114F10401051105DC
:1006000029F0405C5F4F6F4F7F4F40781A8EFE1786
:1006100011F081E08A8F4D8F5E8F6F8F78A383E01A
:10062000898FCE0149960E946F05A096E2E10C9455
:100630001813A8E1B0E0EFE1F3E00C940413698330
:100640007A838B839C832D833E834F835887B9E0C5
:10065000EB2EF12CEC0EFD1ECE010196B7010E948F
:1006600044068E010F5E1F4FCE010596B8010E9411
:1006700044062985223008F47EC03989323010F4CE
:10068000B8017CC08A859A8989278A87243011F02D
:10069000223031F4231709F06EC06EE870E06EC0AE
:1006A000343039F41D861E861F86188A1C861B86E8
:1006B00004C0323021F484E08987B7015FC02B8504
:1006C0003C858B899C89281B390B3C872B87ED84C3
:1006D000FE840F851889AD88BE88CF88D88CEA142F
:1006E000FB040C051D0540F4EE0CFF1C001F111F40
:1006F000215030403C872B8720E030E040E050E044
:1007000080E090E0A0E0B0E460E070E0EA14FB0478
:100710000C051D0540F0282B392B4A2B5B2BEA18C2
:10072000FB080C091D09B695A79597958795EE0CC2
:10073000FF1C001F111F6F5F7F4F6F31710531F775
:10074000DA01C9018F779070A070B0708034910584
:10075000A105B10561F427FD0AC0E114F10401050A
:10076000110529F0205C3F4F4F4F5F4F20782D87B8
:100770003E874F87588BBE01675F7F4FCB010E943A
:100780006F056896EAE00C942013A8E1B0E0EBEC6A
:10079000F3E00C94081369837A838B839C832D8305
:1007A0003E834F83588789E0E82EF12CEC0EFD1E26
:1007B000CE010196B7010E9444068E010F5E1F4FC5
:1007C000CE010596B8010E9444068985823040F02A
:1007D0008989823028F0C701B8010E94BC0601C097
:1007E0008FEF6896E6E00C942413A8E0B0E0EBEFFE
:1007F000F3E00C9405139B01AC0183E08983DA01DB
:10080000C9018827B7FD83959927AA27BB27B82E4A
:10081000211531054105510519F482E089833AC05B
:100820008823A9F0203080E0380780E0480780E87E
:10083000580729F460E070E080E09FEC30C0EE24BF
:10084000FF248701E21AF30A040B150B02C0790199
:100850008A018EE1C82ED12CDC82CB82ED82FE8211
:100860000F831887C801B7010E9420050197181649
:10087000190684F4082E04C0EE0CFF1C001F111F83
:100880000A94D2F7ED82FE820F831887C81AD90A1C
:10089000DC82CB82BA82CE0101960E946F05289637
:1008A000E9E00C942113ACE0B0E0E9E5F4E00C944D
:1008B0000C1369837A838B839C83CE010196BE01DE
:1008C0006B5F7F4F0E9444068D81823061F18230E0
:1008D00050F1843021F48E81882351F12EC02F8174
:1008E000388537FD20C06E812F3131051CF066231D
:1008F000F9F023C08EE190E0821B930B29853A85A5
:100900004B855C8504C056954795379527958A9504
:10091000D2F76623B1F050954095309521953F4F21
:100920004F4F5F4F0EC020E030E040E050E009C084
:100930002FEF3FEF4FEF5FE704C020E030E040E0F3
:1009400050E8B901CA012C96E2E00C942813A8E003
:10095000B0E0EDEAF4E00C9404137B018C01611526
:1009600071058105910519F482E0898360C083E0F7
:1009700089838EE1C82ED12CDC82CB82ED82FE826F
:100980000F831887C801B7010E942005FC01319729
:10099000F7FF3BC0222733272E1B3F0B570168016F
:1009A000022E04C0D694C794B794A7940A94D2F7A1
:1009B00040E050E060E070E081E090E0A0E0B0E076
:1009C00004C0880F991FAA1FBB1F2A95D2F7019751
:1009D000A109B1098E219F21A023B1230097A10570
:1009E000B10521F041E050E060E070E04A295B2968
:1009F0006C297D294D835E836F8378878EE190E03B
:100A00008E1B9F0B9C838B8312C0309781F00E2E20
:100A100004C0EE0CFF1C001F111F0A94D2F7ED82D8
:100A2000FE820F831887CE1ADF0ADC82CB821A82FD
:100A3000CE0101960E946F052896EAE00C942013DF
:100A4000EF92FF920F931F937B018C0180E0E816D9
:100A500080E0F80681E0080780E0180788F48FEF4F
:100A6000E816F1040105110531F028F088E090E066
:100A7000A0E0B0E017C080E090E0A0E0B0E012C0DD
:100A800080E0E81680E0F80680E0080781E01807BB
:100A900028F088E190E0A0E0B0E004C080E190E0C0
:100AA000A0E0B0E020E230E040E050E0281B390B4D
:100AB0004A0B5B0B04C016950795F794E7948A954B
:100AC000D2F7F701EA56FF4F8081281B310941090F
:100AD0005109C9011F910F91FF90EF900895DF9286
:100AE000EF92FF920F931F93FC01E480F580068143
:100AF0001781D1808081823048F480E090E0A0E1CD
:100B0000B0E0E82AF92A0A2B1B2BA5C0843009F48F
:100B10009FC0823021F4EE24FF24870105C0E11438
:100B2000F1040105110519F4E0E0F0E096C06281DE
:100B300073819FEF623879070CF05BC022E83FEFCA
:100B4000261B370B2A3131052CF020E030E040E045
:100B500050E02AC0B801A701022E04C0769567951F
:100B6000579547950A94D2F781E090E0A0E0B0E075
:100B700004C0880F991FAA1FBB1F2A95D2F701979F
:100B8000A109B1098E219F21A023B1230097A105BE
:100B9000B10521F081E090E0A0E0B0E09A01AB0166
:100BA000282B392B4A2B5B2BDA01C9018F779070E8
:100BB000A070B07080349105A105B10539F427FF0C
:100BC00009C0205C3F4F4F4F5F4F04C0215C3F4F37
:100BD0004F4F5F4FE0E0F0E02030A0E03A07A0E0A8
:100BE0004A07A0E45A0710F0E1E0F0E079018A0139
:100BF00027C06038710564F5FB01E158FF4FD8014B
:100C0000C7018F779070A070B07080349105A105F6
:100C1000B10539F4E7FE0DC080E490E0A0E0B0E05B
:100C200004C08FE390E0A0E0B0E0E80EF91E0A1FD8
:100C30001B1F17FF05C016950795F794E79431968B
:100C400087E016950795F794E7948A95D1F705C044
:100C5000EE24FF248701EFEFF0E06E2F6795662703
:100C60006795902F9F77D794DD24D7948E2F869504
:100C7000492F462B582F5D29B701CA011F910F91AB
:100C8000FF90EF90DF900895FC01DB0140815181DE
:100C90002281622F6F7770E0221F2227221F93810B
:100CA000892F880F822B282F30E0991F9927991FB1
:100CB00011969C93119721153105A9F54115510500
:100CC0006105710511F482E037C082E89FEF139649
:100CD0009C938E9312979A01AB0167E0220F331F0A
:100CE000441F551F6A95D1F783E08C930DC0220FE6
:100CF000331F441F551F12968D919C911397019796
:100D000013969C938E931297203080E0380780E0F2
:100D1000480780E4580758F314962D933D934D935C
:100D20005C93179708952F3F310579F441155105CC
:100D30006105710519F484E08C93089564FF03C084
:100D400081E08C9312C01C9210C02F573040139634
:100D50003C932E93129783E08C9387E0440F551FAA
:100D6000661F771F8A95D1F7706414964D935D9333
:100D70006D937C93179708951F93DC01FB019C9161
:100D8000923008F447C08081823008F443C0943028
:100D900051F411961C91843099F58181682F70E08F
:100DA000611B71093FC0843021F0923031F48230F0
:100DB000B9F18181882389F12DC011961C91119779
:100DC0008230F1F081811817D9F412962D913C915F
:100DD0001397828193818217930794F0281739071C
:100DE000BCF014968D919D910D90BC91A02D248105
:100DF000358146815781281739074A075B0718F460
:100E0000112341F00AC082179307A407B50740F4E5
:100E1000112319F061E070E005C06FEF7FEF02C0B1
:100E200060E070E0CB011F910895CF93DF930E94A3
:100E3000790C8CE00E948C0A0E94A7080E94660927
:100E40000E948E080E94B708C0E9D1E00E94710894
:100E500070939901609398016531710590F50E9436
:100E60000D090E94B30820E137E2CE010197F1F7A6
:100E700021503040D1F70E94710870939D0160931A
:100E80009C010E94BC0820E137E2CE010197F1F7F6
:100E900021503040D1F70E94710870939B016093FC
:100EA0009A010E94B70820919C0130919D01809188
:100EB0009A0190919B018217930768F028173907D0
:100EC000E0F00E94610981E00E948C0A80E690E0D7
:100ED0000E94CD0ABBCF0E94420981E00E948C0A89
:100EE00081E790E00E94CD0A20E137E2CE01019730
:100EF000F1F721503040D1F7A9CF0E945C0981E081
:100F00000E948C0A80E890E00E94CD0A20E137E23E
:100F1000CE010197F1F721503040D1F797CF0F93D1
:100F20001F938B01FC01EE0FFF1FE80FF91FEE0F5F
:100F3000FF1FEF54FE4F20E030E000831183228337
:100F40003383558344831F910F9108951F920F920D
:100F50000FB60F921124EF92FF920F931F932F93CE
:100F60003F934F935F936F937F938F939F93AF9331
:100F7000BF93CF93DF93EF93FF93E0909E01F090A8
:100F80009F010091A0011091A1010894E11CF11CA6
:100F9000011D111DE0929E01F0929F010093A0019E
:100FA0001093A10180EF84BDC1EBD1E00DC0269666
:100FB00081E0CD3ED807E9F0E0909E01F0909F01DE
:100FC0000091A0011091A101288139814A815B81A2
:100FD000C801B7010E94DA126115710581059105FA
:100FE00031F7EC81FD810995269681E0CD3ED80749
:100FF00019F7FF91EF91DF91CF91BF91AF919F9141
:101000008F917F916F915F914F913F912F911F91A0
:101010000F91FF90EF900F900FBE0F901F901895BB
:101020000E94330E08950E94430E80EF84BD089500
:101030001F920F920FB60F9211242F933F934F934D
:101040005F936F937F938F939F93AF93BF93EF9330
:10105000FF939091A201913089F0FF91EF91BF91A0
:10106000AF919F918F917F916F915F914F913F9140
:101070002F910F900FBE0F901F9018958091A30194
:10108000882351F122B76091AD017091AE0180913A
:10109000AF019091B001982F872F762F6627620FAE
:1010A000711D811D911D25EA33E040E050E00E9452
:1010B000DA12209398013093990140939A0150934A
:1010C0009B011092AD011092AE011092AF011092EF
:1010D000B0011092A301C1CF9093A3010E94BC0F55
:1010E000BCCF8091A201882381F483E060E041E0DD
:1010F0000E94A11180E58A95F1F783E060E040E06D
:101100000E94A11181E08093A201609198017091E9
:10111000990180919A0190919B01089583E060E08C
:1011200041E00E94321183E062E040E00E9432110F
:10113000929A0E94921080E00E94AD1080E061E0DF
:101140000E94C0100E9425100E949F0F08958D9A42
:101150001DBC1CBC87E893E197BD86BD82E88FBDAE
:101160008BE18EBD089582E88ABD1BBC08958EE593
:101170008ABD81E08BBD089588E58ABD82E08BBD84
:1011800008950E94A70420EA3AE147E250E40E9451
:101190001F020E9449006E577F4F8F4F9F4F6ABDBD
:1011A000672F782F892F99276BBD08950E94DC0E39
:1011B00008950E94DF0E08950E94D80E089567E6F4
:1011C00070E080E090E00E94EB0E0895A0E0B0E0B7
:1011D000BC01CD010E94010F089582E065E040E06E
:1011E0000E94A11182E066E040E00E94A11183E02C
:1011F00065E041E00E94A111089582E063E040E0D3
:101200000E94A11182E064E040E00E94A11183E00D
:1012100064E041E00E94A11108950E94FD080E942F
:10122000ED08089582E065E040E00E94A11182E0AF
:1012300066E041E00E94A11183E065E041E00E9488
:10124000A111089582E065E041E00E94A11182E0D1
:1012500066E040E00E94A11183E065E041E00E9469
:10126000A111089582E063E040E00E94A11182E0B4
:1012700064E041E00E94A11183E064E041E00E944B
:10128000A11108950E9422090E94320908950E9426
:1012900032090E941209089582E063E041E00E9451
:1012A000A11182E064E040E00E94A11183E064E0CB
:1012B00041E00E94A11108950E944C090E94120968
:1012C00008950E944C090E942209089583E064E079
:1012D00041E00E94321183E065E041E00E9432115A
:1012E00082E063E041E00E94321182E064E041E08C
:1012F0000E94321182E065E041E00E94321182E0FA
:1013000066E041E00E9432110895EF92FF920F9340
:101310001F937C0181E061E041E00E94A11181E026
:1013200062E040E00E94A11181E063E040E00E94A1
:10133000A111C7016AE070E00E94C612682F629591
:10134000607F80E040EF0E943D1200E21EE4C80191
:101350000197F1F781E061E040E00E94A11181E096
:1013600062E041E00E94A11181E063E040E00E9460
:10137000A111C7016AE070E00E94C612CB016AE0C9
:1013800070E00E94C612682F6295607F80E040EF97
:101390000E943D12C8010197F1F781E061E040E051
:1013A0000E94A11181E062E040E00E94A11181E071
:1013B00063E041E00E94A111C70164E670E00E9471
:1013C000C6126295607F80E040EF0E943D12C80126
:1013D0000197F1F71F910F91FF90EF9008958F9271
:1013E0009F92AF92BF92CF92DF92EF92FF920F93B4
:1013F0001F93CF93DF93EC015A016B014115510507
:1014000061057105E1F091E0E92EF12C012D112D1E
:1014100080EA882E8FE0982ECE010E948509C401B3
:101420000197F1F780E190E0A0E0B0E0E80EF91E4E
:101430000A1F1B1FAE14BF04C006D10668F7DF9158
:10144000CF911F910F91FF90EF90DF90CF90BF90C1
:10145000AF909F908F90089580E064E041E00E94FB
:10146000321180E065E041E00E94321180E066E0E8
:1014700041E00E94321180E067E041E00E943211B9
:1014800081E061E041E00E94321181E062E041E0F0
:101490000E94321181E063E041E00E943211089520
:1014A00080E00E948110A0E0B0E0BC01CD010E946C
:1014B000A70420E030E040EA50E40E941F0220E050
:1014C00030E040E251E40E9419030E9449000E946A
:1014D000A70408950E94790C0E94500A0E944900B6
:1014E0000E94DC0A83E40E94760C089580E80E9442
:1014F0003110089581E063E041E00E94A11185E090
:101500008A95F1F781E063E040E00E94A11180E458
:101510009FE10197F1F708951F93182F81E061E093
:1015200040E00E94A11180E0612F40EF0E943D1237
:101530000E947A0A1295107F80E0612F40EF0E948E
:101540003D120E947A0A1F910895882329F4862F5C
:1015500080580E948C0A0895813009F00895862FE2
:1015600080540E948C0A08951F93182F81E061E037
:1015700041E00E94A11180E0612F40EF0E943D12E6
:101580000E947A0A1295107F80E0612F40EF0E943E
:101590003D120E947A0A1F910895CF93DF93EC01C8
:1015A0008881882331F00E94B40A2196888188239B
:1015B000D1F7DF91CF9108955F926F927F928F92D2
:1015C0009F92AF92BF92CF92DF92EF92FF920F93D2
:1015D0001F937B018C012AE030E040E050E00E9444
:1015E000DA12D62E2AE0E216F1040105110508F4FC
:1015F00011C1C801B7012AE030E040E050E00E948C
:10160000DA12CA01B9012AE030E040E050E00E945D
:10161000DA12C62ED801C7010A97A109B1098A3585
:101620009105A105B10508F4F1C0C801B70124E690
:1016300030E040E050E00E94DA12CA01B9012AE02D
:1016400030E040E050E00E94DA12B62ED801C70127
:1016500084569040A040B04084589340A040B04091
:1016600008F4D0C0C801B70128EE33E040E050E0F4
:101670000E94DA12CA01B9012AE030E040E050E0ED
:101680000E94DA12A62ED801C701885E9340A040BE
:10169000B04088529342A040B04008F4AFC0C801A7
:1016A000B70120E137E240E050E00E94DA12CA01BF
:1016B000B9012AE030E040E050E00E94DA12862EC4
:1016C000D801C70180519742A040B04080599F4542
:1016D000A140B04008F48EC0C801B70120EA36E846
:1016E00041E050E00E94DA12CA01B9012AE030E07C
:1016F00040E050E00E94DA12562ED801C701805A0D
:101700009648A140B040805A9B4BAD40B04008F491
:101710006DC0C801B70120E432E44FE050E00E9400
:10172000DA12CA01B9012AE030E040E050E00E943C
:10173000DA12762ED801C70180549244AF40B040EF
:1017400080549445A948B04008F44CC0C801B70182
:1017500020E836E948E950E00E94DA12CA01B901EE
:101760002AE030E040E050E00E94DA12962ED801E4
:10177000C70180589649A849B04080589A44AD4561
:10178000B54060F1C801B70120E031EE45EF55E00A
:101790000E94DA12CA01B9012AE030E040E050E0CC
:1017A0000E94DA12662ED801C7018050914EA54FD3
:1017B000B5408050994EA44AB54360F0C801B701C6
:1017C00020E03AEC4AE95BE30E94DA12822F805D66
:1017D0000E94B40A862D805D0E94B40A892D805D26
:1017E0000E94B40A872D805D0E94B40A852D805D19
:1017F0000E94B40A882D805D0E94B40A8A2D805D03
:101800000E94B40A8B2D805D0E94B40A8C2D805DED
:101810000E94B40A8D2D805D0E94B40A1F910F9121
:10182000FF90EF90DF90CF90BF90AF909F908F9000
:101830007F906F905F900895AF92BF92CF92DF92AA
:10184000EF92FF920F931F935B016C010E9449007E
:101850007B018C010E94DC0A8EE20E94B40AC8015E
:10186000B7010E94A7049B01AC01C601B5010E940B
:10187000C10120E030E543EC57E40E941F020E94C2
:101880004900E62EA72E182F092FFF246E2D7A2D42
:10189000812F902F2AE030E040E050E00E94DA12E1
:1018A000611571058105910591F46E2D7A2D812FB9
:1018B000902F2AE030E040E050E00E94DA12E22E61
:1018C000A32E142F052FF39485E0F816F9F66E2D4C
:1018D0007A2D812F902F0E94DC0A1F910F91FF908B
:1018E000EF90DF90CF90BF90AF9008950E94B40A20
:1018F000089581E061E041E00E94321181E062E000
:1019000041E00E94321181E063E041E00E94321127
:1019100080E064E041E00E94321180E065E041E057
:101920000E94321180E066E041E00E94321180E0C6
:1019300067E041E00E94321181E062E040E00E94F5
:10194000A11180E69AEE0197F1F783E00E948C0ADC
:1019500080E29EE40197F1F783E00E948C0A80E91F
:1019600091E00197F1F783E00E948C0A82E00E94E7
:101970008C0A88E20E948C0A80E060E00E94A50A3E
:1019800008951F93182F809196018130D1F081E046
:1019900061E040E00E94A11181E062E041E00E942C
:1019A000A111812F6AE00E94BA12682F6295607FB0
:1019B00080E040EF0E943D1281E0809396011F91EC
:1019C000089561E041E00E94A11181E062E040E001
:1019D0000E94A111812F6AE00E94BA129295907F15
:1019E00080E0692F40EF0E943D12109296011F91F6
:1019F0000895FF920F931F93F82E81E061E041E07C
:101A00000E94A11181E062E040E00E94A1118F2DAF
:101A10006AE00E94BA129295907F80E0692F40EFB1
:101A20000E943D1200E21EE4C8010197F1F781E037
:101A300061E040E00E94A11181E062E041E00E948B
:101A4000A1118F2D6AE00E94BA12682F6295607F03
:101A500080E040EF0E943D12C8010197F1F71F910D
:101A60000F91FF9008959F92AF92BF92CF92DF9215
:101A7000EF92FF920F931F93CF93DF93982E5A010B
:101A80006B014115510561057105D1F081E0E82E2A
:101A9000F12C012D112DC0EADFE0892D0E94F90CF7
:101AA000CE010197F1F78BE090E0A0E0B0E0E80E06
:101AB000F91E0A1F1B1FAE14BF04C006D10668F72B
:101AC000DF91CF911F910F91FF90EF90DF90CF901A
:101AD000BF90AF909F90089580E064E041E00E9445
:101AE000321180E065E041E00E94321180E066E062
:101AF00041E00E94321180E067E041E00E94321133
:101B000081E061E041E00E94321181E062E041E069
:101B10000E943211089580E063E040E00E94A1112C
:101B2000089580E063E041E00E94A111089580E003
:101B300063E041E00E943211089580E062E040E0FD
:101B40000E94A111089580E062E041E00E94A1118D
:101B5000089580E062E041E00E94321108958130F2
:101B600059F0813020F0823061F080E0089581E00A
:101B700060E00E940F12089583E066E00E940F1259
:101B8000089583E062E00E940F12089581E060E012
:101B900040E00E94321183E066E040E00E94321192
:101BA00083E062E040E00E943211089582E062E04A
:101BB0000E9466120895813079F0813028F482E025
:101BC00062E00E9466120895823009F0089583E071
:101BD00063E00E946612089582E067E00E94661248
:101BE0000895813089F0813030F482E062E040E095
:101BF0000E94A1110895823009F0089583E063E006
:101C000040E00E94A111089582E067E040E00E9458
:101C1000A1110895813089F0813030F482E062E0D2
:101C200041E00E94A1110895823009F0089583E0F7
:101C300063E041E00E94A111089582E067E041E085
:101C40000E94A111089582E062E041E00E943211F9
:101C500082E067E041E00E94321183E063E041E00E
:101C60000E943211089585B5876085BD0895089555
:101C7000089560E070E080E090E0089560E070E03A
:101C800080E090E0089585B5877F85BD85B58F7B21
:101C900085BD0E94921082E00E941F110895E19973
:101CA000FECF8EBB9FBBE09A8DB30895E199FECF26
:101CB0008EBB9FBB6DBBE29AE19A089586B78064A4
:101CC00086BF80E280B981B16CEF0E94BA1291B9EF
:101CD00086B7846086BF089586B7806486BF82E039
:101CE00082B986B7846086BF089586B7806286BF52
:101CF00086B7806886BF06B607FEFDCF089586B713
:101D0000806286BF86B7806886BF06B607FEFDCFB5
:101D1000089586B7806186BF86B7806886BF06B69D
:101D200007FEFDCF0895880F83B986B78F7D86BFE4
:101D300086B7806886BF06B607FEFDCF0895880F78
:101D400083B9189A86B78F7D86BF86B7806886BFAD
:101D500006B607FEFDCF089583B986B7806886BFB3
:101D600006B607FEFDCF089586B7806886BF06B623
:101D700007FEFDCF83B108956E9A6D9A6C9A8DB16E
:101D80008C7F8DB9709808956E9A6D9A6C980895AD
:101D90008FB9779BFECF8FB108958FB9779BFECF18
:101DA0008FB108958FEF8FB9779BFECF8FB10895D4
:101DB0005D9BFECF8CB908958091A8010895FC0128
:101DC0008081882339F05D9BFECF8CB9319680816C
:101DD0008823C9F708951F93162F0E949210579ACF
:101DE00080B58F7780BD19B910BC80B58F7B80BD61
:101DF000529880B5866A80BD539A549A579A1F911B
:101E000008952091A9013091AA014091AB01509110
:101E1000AC010E949B1224E630E040E050E00E94BA
:101E2000DA12C901DA012ABD892F9A2FAB2FBB27FD
:101E30008BBD08958EB5887F83608EBD08958EB565
:101E4000887F8EBD08959B01AC01220F331F441F74
:101E5000551F220F331F441F551F220F331F441FCE
:101E6000551F220F331F441F551F220F331F441FBE
:101E7000551F220F331F441F551F60E074E284EF8B
:101E800090E00E94DA1221503040404050402093B0
:101E9000A9013093AA014093AB015093AC0126BD38
:101EA000232F342F452F552727BD8FB58C7F826078
:101EB0008FBD8EB588618EBD8FB58F7380688FBDE5
:101EC00083E065E041E00E94321108951F920F9275
:101ED0000FB60F9211242F938F939F93AF93BF93BD
:101EE0008091AD019091AE01A091AF01B091B00190
:101EF0000196A11DB11D8093AD019093AE01A093F9
:101F0000AF01B093B0018B5D9240A040B04068F04B
:101F100012BE1092A2011092A3011092AD01109274
:101F2000AE011092AF011092B001BF91AF919F919D
:101F30008F912F910F900FBE0F901F90189583B720
:101F4000887F816083BF8DEB97E3A6E8B3E380933E
:101F5000ED019093EE01A093EF01B093F00108958D
:101F60001092AD011092AE011092AF011092B0012B
:101F700083B7887F83BF08951092AD011092AE01A0
:101F80001092AF011092B00112BE08956F927F922D
:101F90008F929F92AF92BF92CF92DF92EF92FF9279
:101FA0000F931F936090ED017090EE018090EF0110
:101FB0009090F001E2B66091AD017091AE01809118
:101FC000AF019091B001982F872F762F66270E943E
:101FD000A704A40193010E941F025B016C01FF246E
:101FE0000027F7FC0095102FC801B7010E94F503E8
:101FF0009B01AC01C401B3010E941F029B01AC0113
:10200000C601B5010E94F20120E030E04AE754E445
:102010000E941F020E9449009B01AC01CA011F914E
:102020000F91FF90EF90DF90CF90BF90AF909F9077
:102030008F907F906F9008956091AD017091AE0187
:102040008091AF019091B001089583B7877F83BFDE
:1020500083B78F7B83BF0E94921080E00E941F1184
:102060000895379A3D98803109F442C0813178F063
:10207000803461F18038C9F08032B9F486B1887F4C
:10208000856086B987B18F73806487B9089584307D
:1020900031F1883091F0823041F486B1887F86B981
:1020A00087B18F73806487B9089586B1876086B9D8
:1020B00087B18F73806487B9089586B1887F836004
:1020C00086B987B18F73806487B9089586B1887F98
:1020D000866086B987B18F73806487B9089586B1A9
:1020E000887F826086B987B18F73806487B90895CD
:1020F00086B1887F846086B987B18F73806487B921
:10210000089597B1987F982B97B9369A349BFECF54
:10211000349A24B145B1942F80E030E0282B392B3C
:10212000C90108958FB780688FBF08958FB78F77E3
:102130008FBF0895813069F0813020F48BB78F7B99
:102140008BBF0895823009F008958BB78F7D8BBFC8
:1021500008958BB78F778BBF0895813069F08130F8
:1021600020F48BB780648BBF0895823009F0089506
:102170008BB780628BBF08958BB780688BBF089543
:102180008130C1F0813058F4613051F16130D0F5C7
:1021900085B78E7F85BF85B78D7F85BF08958230D7
:1021A00009F00895623089F06330B9F184B78F7B0C
:1021B00084BF0895613069F06130C8F485B78B7FC2
:1021C00085BF85B7877F85BF089584B78F7B84BF20
:1021D000089585B7846085BF85B7877F85BF0895DB
:1021E00085B7816085BF85B78D7F85BF08956230D3
:1021F000F9F06330B1F685B7846085BF85B7886034
:1022000085BF0895623069F0633059F685B7816003
:1022100085BF85B7826085BF089584B7806484BF19
:10222000089585B78E7F85BF85B7826085BF089585
:1022300085B78B7F85BF85B7886085BF0895882364
:1022400021F489B7816089BF0895823009F008952B
:1022500089B7806489BF0895882319F489B78E7F70
:1022600089BF0895813029F1813028F0823079F1D9
:10227000833081F00895413009F44DC02AB381E0E4
:1022800090E002C0880F991F6A95E2F7809582233B
:102290008ABB0895413009F449C021B381E090E040
:1022A00002C0880F991F6A95E2F78095822381BB4F
:1022B0000895413029F127B381E090E002C0880FF2
:1022C000991F6A95E2F78095822387BB0895413074
:1022D00061F024B381E090E002C0880F991F6A95F5
:1022E000E2F78095822384BB089524B381E090E0D7
:1022F00002C0880F991F6A95E2F7282B24BB089526
:1023000027B381E090E002C0880F991F6A95E2F739
:10231000282B27BB08952AB381E090E002C0880FE4
:10232000991F6A95E2F7282B2ABB089521B381E013
:1023300090E002C0880F991F6A95E2F7282B21BB15
:102340000895813019F1813028F0823069F18330AD
:1023500079F008954423B1F52BB381E090E002C0F9
:10236000880F991F6A95E2F7809582238BBB0895A9
:10237000442309F448C022B381E090E002C0880FF2
:10238000991F6A95E2F7282B22BB0895442381F513
:1023900028B381E090E002C0880F991F6A95E2F7A8
:1023A0008095822388BB08954423B9F425B381E046
:1023B00090E002C0880F991F6A95E2F7809582230A
:1023C00085BB08952BB381E090E002C0880F991F70
:1023D0006A95E2F7282B2BBB089525B381E090E0A6
:1023E00002C0880F991F6A95E2F7282B25BB089534
:1023F00028B381E090E002C0880F991F6A95E2F748
:10240000282B28BB089522B381E090E002C0880FFA
:10241000991F6A95E2F78095822382BB08958130E7
:10242000D1F0813030F08230F9F0833059F080E023
:10243000089589B390E002C0959587956A95E2F773
:102440008170089580B390E002C0959587956A9554
:10245000E2F78170089586B390E002C09595879564
:102460006A95E2F78170089583B390E002C0959574
:1024700087956A95E2F7817008958130B9F08130CF
:1024800028F08230D9F0833049F008959BB3842F2F
:10249000809589234623842B8BBB089592B3842F88
:1024A000809589234623842B82BB089598B3842F7B
:1024B000809589234623842B88BB089595B3842F68
:1024C000809589234623842B85BB08958130E9F0CC
:1024D000813028F0823021F1833061F008952BB3F0
:1024E00081E090E002C0880F991F6A95E2F72827E3
:1024F0002BBB089522B381E090E002C0880F991FA2
:102500006A95E2F7282722BB089528B381E090E07E
:1025100002C0880F991F6A95E2F7282728BB089503
:1025200025B381E090E002C0880F991F6A95E2F719
:10253000282725BB0895629FD001739FF001829FD9
:10254000E00DF11D649FE00DF11D929FF00D839F42
:10255000F00D749FF00D659FF00D9927729FB00DDF
:10256000E11DF91F639FB00DE11DF91FBD01CF01F2
:1025700011240895991B79E004C0991F961708F05B
:10258000961B881F7A95C9F780950895AA1BBB1BD7
:1025900051E107C0AA1FBB1FA617B70710F0A61B63
:1025A000B70B881F991F5A95A9F780959095BC0184
:1025B000CD010895A1E21A2EAA1BBB1BFD010DC07F
:1025C000AA1FBB1FEE1FFF1FA217B307E407F507E3
:1025D00020F0A21BB30BE40BF50B661F771F881FBF
:1025E000991F1A9469F760957095809590959B0155
:1025F000AC01BD01CF0108952F923F924F925F929F
:102600006F927F928F929F92AF92BF92CF92DF9202
:10261000EF92FF920F931F93CF93DF93CDB7DEB767
:10262000CA1BDB0B0FB6F894DEBF0FBECDBF0994FB
:102630002A88398848885F846E847D848C849B8452
:10264000AA84B984C884DF80EE80FD800C811B8160
:10265000AA81B981CE0FD11D0FB6F894DEBF0FBE8F
:0A266000CDBFED010895F894FFCFFF
:10266A0044697265632E203D20466F72776F7264EB
:10267A000044697265632E203D20526967687400C0
:10268A0044697265632E203D204C65667400000023
:10269A000000000000000001020203030303040417
:1026AA0004040404040405050505050505050505D6
:1026BA0005050505050506060606060606060606B6
:1026CA0006060606060606060606060606060606A0
:1026DA000606060606060707070707070707070786
:1026EA000707070707070707070707070707070770
:1026FA000707070707070707070707070707070760
:10270A00070707070707070707070707070707074F
:10271A000707070707070808080808080808080835
:10272A00080808080808080808080808080808081F
:10273A00080808080808080808080808080808080F
:10274A0008080808080808080808080808080808FF
:10275A0008080808080808080808080808080808EF
:10276A0008080808080808080808080808080808DF
:10277A0008080808080808080808080808080808CF
:10278A0008080808080808080808080808080808BF
:08279A00080808080808010006
:00000001FF
